:03000000020C618E
:03000B00020EA53D
:10080000E51DB4020B051AE51A75F0068485F01A89
:10081000E51D640360030208C17411251AF806E59A
:1008200011D394634003E4F511E512D3940C400313
:10083000751201E51264016023E5126403601DE591
:100840001264056017E51264076011E51264086020
:100850000BE512640A6005E512B40C09E513D394A4
:100860001F4040803BE51264046011E5126406609D
:100870000BE51264096005E512B40B09E513D39486
:100880001E4020801BE512B40219E51154037009C3
:10089000E513D3941D400C8007E513D3941C40034B
:1008A000751301E514D394174003E4F514E515D34B
:1008B000943B4003E4F515E516D3943B4003E4F57F
:1008C00016E51D6404600302099B7411251AF816CD
:1008D000E511C394005003751163E512C3940150F0
:1008E0000375120CE51264016023E5126403601DB8
:1008F000E51264056017E51264076011E5126408EB
:10090000600BE512640A6005E512B40C13E513C32D
:100910009401500375131FE513D3941F405F805A51
:10092000E51264046011E5126406600BE5126409C7
:100930006005E512B40B13E513C39401500375135E
:100940001EE513D3941E40358030E5126402702DED
:10095000E51154037013E513C39401500375131D7F
:10096000E513D3941D40168011E513C39401500381
:1009700075131CE513D3941C4003751301E514C3D0
:1009800094005003751417E515C3940050037515B2
:100990003BE516C39400500375163BE51A7014E549
:1009A0001CB4010F7BFF7A0F79B27D017F01120F1A
:1009B0000F800FE511FB7A00750C027D017F01129B
:1009C0000F50E51AB40114E51CB4010F7BFF7A0F38
:1009D00079B27D047F01120F0F800FE512FB7A00C0
:1009E000750C027D047F01120F50E51AB40214E564
:1009F0001CB4010F7BFF7A0F79B27D077F01120FC4
:100A00000F800FE513FB7A00750C027D077F011242
:100A10000F50E51AB40314E51CB4010F7BFF7A0FE5
:100A200079B27D017F02120F0F800FE514FB7A006F
:100A3000750C027D017F02120F50E51AB40414E513
:100A40001CB4010F7BFF7A0F79B27D047F02120F75
:100A50000F800FE515FB7A00750C027D047F0212F2
:100A60000F50E51AB40512E51CB4010D7BFF7A0F97
:100A700079B27D077F02020F0FE516FB7A00750C35
:100A8000027D077F02120F5022E4FD7F8E120E06B8
:100A9000E51175F00A84C454F0FFE51175F00A847D
:100AA000EF7F8C120E03E51275F00A84C454F0FF38
:100AB000E51275F00A84EF7F88120E03E51375F0D6
:100AC0000A84C454F0FFE51375F00A84EF25F0FDA5
:100AD0007F86120E06E51475F00A84C454F0FFE513
:100AE0001475F00A84EF25F0FD7F84120E06E515DB
:100AF00075F00A84C454F0FFE51575F00A84EF25FB
:100B0000F0FD7F82120E06E51675F00A84C454F0DB
:100B1000FFE51675F00A84EF25F0FD7F80120E06C2
:100B2000E51775F00A84C454F0FFE51775F00A84E0
:100B3000EF25F0FD7F8A120E067D807F8E020E0665
:100B4000BB010CE58229F582E5833AF583E022506A
:100B500006E92582F8E622BBFE06E92582F8E222B4
:100B6000E58229F582E5833AF583E49322EF8DF05F
:100B7000A4A8F0CF8CF0A428CE8DF0A42EFE22BC29
:100B8000000BBE0029EF8DF084FFADF022E4CCF81D
:100B900075F008EF2FFFEE33FEEC33FCEE9DEC9882
:100BA0004005FCEE9DFE0FD5F0E9E4CEFD22EDF808
:100BB000F5F0EE8420D21CFEADF075F008EF2FFFAB
:100BC000ED33FD4007985006D5F0F222C398FD0F93
:100BD000D5F0EA227F8C120E57EFC4540F75F00A3D
:100BE000A4FEEF540F2EF5117F88120E57EFC45458
:100BF0000F75F00AA4FEEF540F2EF5127F86120E29
:100C000057EFC4540F75F00AA4FEEF540F2EF513DE
:100C10007F84120E57EFC4540F75F00AA4FEEF54F0
:100C20000F2EF5147F82120E57EFC4540F75F00A81
:100C3000A4FEEF540F2EF5157F80120E57EFC4540B
:100C40000F75F00AA4FEEF540F2EF5167F8A120ED0
:100C500057EFC4540F75F00AA4FEEF540F2EF5178A
:100C600022787FE4F6D8FD75811D020CA8020DAB39
:100C7000E493A3F8E493A34003F68001F208DFF4C1
:100C80008029E493A3F85407240CC8C333C4540F39
:100C90004420C8834004F456800146F6DFE4800B0C
:100CA0000102040810204080900FEAE47E01936066
:100CB000BCA3FF543F30E509541FFEE493A3600139
:100CC0000ECF54C025E060A840B8E493A3FAE493A3
:100CD000A3F8E493A3C8C582C8CAC583CAF0A3C851
:100CE000C582C8CAC583CADFE9DEE780BEE4F5086D
:100CF00020B1137F14FE120F6D30B1FD7F147E0002
:100D0000120F6D75080120B0147F147E00120F6D54
:100D100030B0FD7F147E00120F6D75080220B214F2
:100D20007F147E00120F6D30B2FD7F147E00120F13
:100D30006D75080320B3147F147E00120F6D30B35D
:100D4000FD7F147E00120F6D750804AF0822120B90
:100D5000D4E511FB7A00750C027D017F01120F5062
:100D6000E512FB7A00750C027D047F01120F50E53D
:100D700013FB7A00750C027D077F01120F50E514FA
:100D8000FB7A00750C027D017F02120F50E515FB06
:100D90007A00750C027D047F02120F50E516FB7A73
:100DA00000750C027D077F02020F50120FC7120F51
:100DB000FE120F857BFF7A0F79B57D017F01120F3F
:100DC0000F7BFF7A0F79BE7D017F02120F0F120A8F
:100DD00089120CED8F1DE51DB40116E51B7007751A
:100DE0001B01F51A800BE51BB40106E4F51B120A82
:100DF00089E51B1460080470D8120D4E80D31208C8
:100E00000080CE25F0FDA907D2B5E4FB74017E0079
:100E1000A803088005C333CE33CED8F9FFE9F582A5
:100E2000EF558224FF92B4D2B6C2B60BBB08DDE404
:100E3000FB74017E00A803088005C333CE33CED8EF
:100E4000F9FFEDF582EF558224FF92B4D2B6C2B617
:100E50000BBB08DDC2B522AD07E4F9430501D2B5ED
:100E6000FB74017E00A803088005C333CE33CED8BF
:100E7000F9FFEDF582EF558224FF92B4C2B6D2B6E7
:100E80000BBB08DDE4FBD2B6C2B630B40D7401A8CA
:100E900003088002C333D8FC42010BBB08E8C2B58B
:100EA000C2B4AF0122C0E0C0D075D000C007758ABF
:100EB00018758CFC0519E51970020518C394F4E542
:100EC0001894014010751800751900E51C7F00701A
:100ED000027F018F1CD007D0D0D0E0327F0AEA24F5
:100EE000FFFDE434FFFC7E008E0D8F0E8C0F8D1005
:100EF0007F017E00E4FBEBC39510E50F6480F8747E
:100F00008098500AAC0DAD0E120B6D0B80E8228B51
:100F1000088A09890A120F9CE4FDAB08AA09A90AEC
:100F20008D82758300120B40FF6006120F460D8004
:100F3000E922CFCDCFCECCCE120B7F7C007D0A1222
:100F40000B7FED2430FFD2A6120FDBC2A7020FE108
:100F50008A0A8B0B120F9CAA0CEAD39400400D1244
:100F60000EDCAC0AAD0B120F321A80ED22EF4E6090
:100F700013750902750AEFD50AFDD509FAEF1F703E
:100F8000EC1E80E9225389F0438901758A18758C1B
:100F9000FCC28DD28CD2A9D2AFC2B922AE07BE019B
:100FA00004ED148006BE0209ED243F4480FF120FB9
:100FB000F42220200020202D20202D202000202081
:100FC0003A20203A2020007F38120FF47F0C120FB5
:100FD000F47F06120FF47F01020FF4C2A58F80D2B6
:100FE000A77F027EEFDEFEDFFC2207111602040D52
:100FF0002E1E0500C2A6120FDBC2A7020FE1C2B56A
:03100000C2B62253
:00000001FF
