:100000000200AAC2B6C2B57D3CE4FF12006E7D427A
:100010007F0112006E7DA97F0212006E7D857F0335
:1000200012006E7D857F0412006E7DA97F0512008F
:100030006E7D427F0612006E7D3C7F0712006E804F
:10004000C6AD07E4FB74807E00A803088006CEA23C
:10005000E713CE13D8F8FFEDF582EF558224FF9217
:10006000B4D2B6C2B60BBB08DCD2B5C2B522AE055F
:10007000AC07AF06120041AF047480A807088002E5
:10008000C313D8FCF4F5807F017E001200927580C6
:10009000FF22EF4E60137508027509EFD509FDD5F3
:1000A00008FAEF1F70EC1E80E922787FE4F6D8FD95
:0600B00075810902000346
:00000001FF
