:100000000201ABE709F608DFFA8046E709F208DFEC
:10001000FA803E88828C83E709F0A3DFFA8032E31E
:1000200009F608DFFA8078E309F208DFFA807088C1
:10003000828C83E309F0A3DFFA806489828A83E0FB
:10004000A3F608DFFA805889828A83E0A3F208DFEA
:10005000FA804C80D280FA80C680D4806980F28099
:1000600033801080A680EA809A80A880DA80E280BF
:10007000CA803389828A83ECFAE493A3C8C582C814
:10008000CCC583CCF0A3C8C582C8CCC583CCDFE97E
:10009000DEE7800D89828A83E493A3F608DFF9EC1A
:1000A000FAA9F0EDFB2289828A83ECFAE0A3C8C5A5
:1000B00082C8CCC583CCF0A3C8C582C8CCC583CCCC
:1000C000DFEADEE880DB89828A83E493A3F208DF3B
:1000D000F980CC88F0EF60010E4E60C388F0ED240B
:1000E00002B4040050B9F582EB2402B4040050AF0E
:1000F0002323458223900053738F088D09780A7C4F
:10010000007D007BFF7A0179B77E007F111200D35A
:10011000E50814B40800505490012675F003A4C5F6
:100120008325F0C5837302013E02014202014602AB
:10013000014A02014E02015602015E020166D2A48A
:10014000800ED2A48012D2A48016D2A4801AC2A497
:10015000D2A3D2A28016C2A4D2A3C2A2800EC2A4ED
:10016000C2A3D2A28006C2A4C2A3C2A2740A250955
:10017000F8E6F5807F017E00120196E4F580227D8D
:10018000017F011200F97D027F021200F97D037FD9
:10019000031200F980E9EF1FAC0670011E4C600AE3
:1001A0007D027CEFDCFEDDFC80EC22787FE4F6D87B
:1001B000FD75811A02017F3F065B4F666D7D077FEB
:0801C0006F777C395E79710054
:00000001FF
