:03000000020228D1
:10000B000200F1BB010CE58229F582E5833AF58309
:10001B00E0225006E92582F8E622BBFE06E925829E
:10002B00F8E222E58229F582E5833AF583E493220F
:10003B00EF8DF0A4A8F0CF8CF0A428CE8DF0A42ED9
:10004B00FE22BC000BBE0029EF8DF084FFADF02229
:10005B00E4CCF875F008EF2FFFEE33FEEC33FCEE3B
:10006B009DEC984005FCEE9DFE0FD5F0E9E4CEFD2E
:10007B0022EDF8F5F0EE8420D21CFEADF075F00801
:10008B00EF2FFFED33FD4007985006D5F0F222C35A
:10009B0098FD0FD5F0EA221201F71201CA7BFF7A05
:1000AB0002791A7D017F0112016C7BFF7A027921A3
:1000BB007D017F0212016CE514FB7A00750C027D49
:1000CB00017F021201ADE515FB7A00750C027D0470
:1000DB007F021201ADE513FB7A00750C027D077FE1
:1000EB00021201AD80D1C0E0C0D0758A18758CFCAE
:1000FB000512E51270020511C394E8E51194034053
:10010B00287511007512000513E513943C401A7500
:10011B0013000515E515D3943C400E751500051419
:10012B00E51494184003751400D0D0D0E0327F0A48
:10013B00EA24FFFDE434FFFC7E008E0D8F0E8C0F46
:10014B008D107F017E00E4FBEBC39510E50F6480FF
:10015B00F8748098500AAC0DAD0E12003B0B80E882
:10016B00228B088A09890A1201E1E4FDAB08AA096E
:10017B00A90A8D8275830012000EFF60061201A37F
:10018B000D80E922CFCDCFCECCCE12004D7C007DA1
:10019B000A12004DED2430FFD2A612020BC2A702A9
:1001AB0002118A0A8B0B1201E1AA0CEAD3940040CC
:1001BB000D120139AC0AAD0B12018F1A80ED2253CF
:1001CB0089F0438901758A18758CFCC28DD28CD24B
:1001DB00A9D2AFC2B922AE07BE0104ED148006BE90
:1001EB000209ED243F4480FF120234227F381202B1
:1001FB00347F0C1202347F061202347F0102023468
:10020B00C2A58F80D2A77F027EEFDEFEDFFC2243EA
:10021B006C6F636B3A0020203A20203A00787FE421
:10022B00F6D8FD7581150200A2C2A612020BC2A759
:03023B00020211AB
:00000001FF
