:10000000020178BB010CE58229F582E5833AF5838C
:10001000E0225006E92582F8E622BBFE06E92582A9
:10002000F8E222E58229F582E5833AF583E493221A
:10003000EF8DF0A4A8F0CF8CF0A428CE8DF0A42EE4
:10004000FE22BC000BBE0029EF8DF084FFADF02234
:10005000E4CCF875F008EF2FFFEE33FEEC33FCEE46
:100060009DEC984005FCEE9DFE0FD5F0E9E4CEFD39
:1000700022EDF8F5F0EE8420D21CFEADF075F0080C
:10008000EF2FFFED33FD4007985006D5F0F222C365
:1000900098FD0FD5F0EA227F0AEA24FFFDE434FF41
:1000A000FC7E008E0D8F0E8C0F8D107F017E00E484
:1000B000FBEBC39510E50F6480F8748098500AAC90
:1000C0000DAD0E1200300B80E8221201550512E52D
:1000D00012700205117FE87E03120127750C03AB35
:1000E00012AA117D017F0112010A80E1CFCDCFCE8E
:1000F000CCCE1200427C007D0A120042ED2430FF7B
:10010000D2A6120169C2A702016F8A0A8B0B1201E3
:100110003FAA0CEAD39400400D120097AC0AAD0B35
:100120001200EC1A80ED22EF4E601375080275097B
:10013000EFD509FDD508FAEF1F70EC1E80E922AE5D
:1001400007BE0104ED148006BE0209ED243F448081
:10015000FF120184227F381201847F0C1201847FF8
:10016000061201847F01020184C2A58F80D2A77F7D
:10017000027EEFDEFEDFFC22787FE4F6D8FD75819B
:0E018000120200CAC2A6120169C2A702016FD4
:00000001FF
