:100000000203C3E4F5087590FFC2932097137F1491
:10001000FE1203603097FD7F147E001203607508A6
:10002000012096147F147E001203603096FD7F1429
:100030007E001203607508052095147F147E00125F
:1000400003603095FD7F147E00120360750809205F
:1000500094147F147E001203603094FD7F147E00A0
:1000600012036075080D7590FFC2922097147F14DB
:100070007E001203603097FD7F147E0012036075CE
:1000800008022096147F147E001203603096FD7FD4
:10009000147E001203607508062095147F147E00FC
:1000A0001203603095FD7F147E0012036075080A0C
:1000B0002094147F147E001203603094FD7F147E20
:1000C0000012036075080E7590FFC2912097147F8F
:1000D000147E001203603097FD7F147E00120360CF
:1000E0007508032096147F147E001203603096FD7D
:1000F0007F147E001203607508072095147F147E1C
:10010000001203603095FD7F147E001203607508B5
:100110000B2094147F147E001203603094FD7F1432
:100120007E0012036075080F7590FFC2902097142F
:100130007F147E001203603097FD7F147E0012034F
:10014000607508042096147F147E001203603096B8
:10015000FD7F147E001203607508082095147F143B
:100160007E001203603095FD7F147E0012036075DF
:10017000080C2094147F147E001203603094FD7FDD
:10018000147E00120360750810AF082212038E7BE4
:10019000FF7A0379A27D017F011203021200038F0F
:1001A00015E5156046C3940A5033C3E5129404E57F
:1001B0001194005028AE13AF147C007D0A1202681F
:1001C0008E138F14E51575F00A84E5F02514F514E7
:1001D000E43513F5130512E51270020511750C04D0
:1001E000AB14AA137D017F02120343E515640B7063
:1001F00028E514B4290DE513B409087BFF7A0379C7
:10020000AC80067BFF7A0379B07D0D7F011203027B
:10021000E4F513F514F511F512E515640C6003020D
:10022000019CF513F514F511F512750C04AB14AA25
:10023000137D017F0212034302019CBB010CE58286
:1002400029F582E5833AF583E0225006E92582F814
:10025000E622BBFE06E92582F8E222E58229F58244
:10026000E5833AF583E49322EF8DF0A4A8F0CF8CD8
:10027000F0A428CE8DF0A42EFE22BC000BBE0029D7
:10028000EF8DF084FFADF022E4CCF875F008EF2F8D
:10029000FFEE33FEEC33FCEE9DEC984005FCEE9D4A
:1002A000FE0FD5F0E9E4CEFD22EDF8F5F0EE842066
:1002B000D21CFEADF075F008EF2FFFED33FD4007C7
:1002C000985006D5F0F222C398FD0FD5F0EA227FB0
:1002D0000AEA24FFFDE434FFFC7E008E0D8F0E8CB5
:1002E0000F8D107F017E00E4FBEBC39510E50F64DA
:1002F00080F8748098500AAC0DAD0E1202680B8025
:10030000E8228B088A09890A120378E4FDAB08AA5F
:1003100009A90A8D8275830012023BFF6006120351
:10032000390D80E922CFCDCFCECCCE12027A7C001F
:100330007D0A12027AED2430FFD2A61203B4C2A7BE
:100340000203BA8A0A8B0B120378AA0CEAD3940030
:10035000400D1202CFAC0AAD0B1203251A80ED221C
:10036000EF4E6013750902750AEFD50AFDD509FA3B
:10037000EF1F70EC1E80E922AE07BE0104ED148071
:1003800006BE0209ED243F4480FF1203CF227F38CE
:100390001203CF7F0C1203CF7F061203CF7F01021F
:1003A00003CF50617373776F72643A004F4B210033
:1003B00045525200C2A58F80D2A77F027EEFDEFE9B
:1003C000DFFC22787FE4F6D8FD75811502018CC22E
:0903D000A61203B4C2A70203BA8D
:00000001FF
