:1000000002032AE4F5087590FFC2932097137F142A
:10001000FE1202D93097FD7F147E001202D97508B6
:10002000012096147F147E001202D93096FD7F14B1
:100030007E001202D97508052095147F147E0012E7
:1000400002D93095FD7F147E001202D9750809206F
:1000500094147F147E001202D93094FD7F147E0028
:100060001202D975080D7590FFC2922097147F1463
:100070007E001202D93097FD7F147E001202D975DE
:1000800008022096147F147E001202D93096FD7F5C
:10009000147E001202D97508062095147F147E0084
:1000A0001202D93095FD7F147E001202D975080A1C
:1000B0002094147F147E001202D93094FD7F147EA8
:1000C000001202D975080E7590FFC2912097147F17
:1000D000147E001202D93097FD7F147E001202D9DF
:1000E0007508032096147F147E001202D93096FD05
:1000F0007F147E001202D97508072095147F147EA4
:10010000001202D93095FD7F147E001202D97508C5
:100110000B2094147F147E001202D93094FD7F14BA
:100120007E001202D975080F7590FFC290209714B7
:100130007F147E001202D93097FD7F147E001202D8
:10014000D97508042096147F147E001202D93096C7
:10015000FD7F147E001202D97508082095147F14C3
:100160007E001202D93095FD7F147E001202D975EF
:10017000080C2094147F147E001202D93094FD7F65
:10018000147E001202D9750810AF0822BB010CE5DD
:100190008229F582E5833AF583E0225006E925823B
:1001A000F8E622BBFE06E92582F8E222E58229F57F
:1001B00082E5833AF583E49322EF8DF0A4A8F0CF93
:1001C0008CF0A428CE8DF0A42EFE22BC000BBE0025
:1001D00029EF8DF084FFADF022E4CCF875F008EF44
:1001E0002FFFEE33FEEC33FCEE9DEC984005FCEE69
:1001F0009DFE0FD5F0E9E4CEFD22EDF8F5F0EE849A
:1002000020D21CFEADF075F008EF2FFFED33FD405E
:1002100007985006D5F0F222C398FD0FD5F0EA22D8
:100220007F0AEA24FFFDE434FFFC7E008E0D8F0E72
:100230008C0F8D107F017E00E4FBEBC39510E50F62
:100240006480F8748098500AAC0DAD0E1201B90BA1
:1002500080E8221203077BFF7A0379367D017F0154
:1002600012027B1200038F11E51160F7FB7A007513
:100270000C027D017F021202BC80E88B088A09898A
:100280000A1202F1E4FDAB08AA09A90A8D8275835E
:100290000012018CFF60061202B20D80E922CFCD60
:1002A000CFCECCCE1201CB7C007D0A1201CBED2447
:1002B00030FFD2A612031BC2A70203218A0A8B0BAE
:1002C0001202F1AA0CEAD39400400D120220AC0AEB
:1002D000AD0B12029E1A80ED22EF4E6013750902DB
:1002E000750AEFD50AFDD509FAEF1F70EC1E80E9FB
:1002F00022AE07BE0104ED148006BE0209ED243FC4
:100300004480FF120341227F381203417F0C120305
:10031000417F061203417F01020341C2A58F80D2B3
:10032000A77F027EEFDEFEDFFC22787FE4F6D8FDB9
:100330007581110202534D61747269784B65793A87
:0B03400000C2A612031BC2A70203218B
:00000001FF
