:10000000020003787FE4F6D8FD75813C02004A02C5
:10001000008FE493A3F8E493A34003F68001F20871
:10002000DFF48029E493A3F85407240CC8C333C435
:10003000540F4420C8834004F456800146F6DFE4A0
:10004000800B01020408102040809000C6E47E016D
:100050009360BCA3FF543F30E509541FFEE493A313
:1000600060010ECF54C025E060A840B8E493A3FA25
:10007000E493A3F8E493A3C8C582C8CAC583CAF0B1
:10008000A3C8C582C8CAC583CADFE9DEE780BEE46B
:10009000F539E4F538E53825392408F8E6FDAF38B8
:1000A0001201270538E538C3940840E9053AE53AD6
:1000B000D3940A40DDE4F53A0539E539D394284074
:1000C000D1E4F53980CC20300800000000000000A9
:1000D00000FF101010FF00000F15150900007F0130
:1000E0000100007F010100000E11110E007D0000D3
:1000F00000000000000000000000AD07E4FB748079
:100100007E00A803088006CEA2E713CE13D8F8FF1E
:10011000EDF582EF558224FF92B4D2B6C2B60BBB86
:1001200008DCD2B5C2B522AE05AC07AF061200FAA4
:10013000AF047480A807088002C313D8FCF4F580CC
:100140007F017E0012014B7580FF22EF4E60137518
:100150003B02753CEFD53CFDD53BFAEF1F70EC1E22
:0301600080E92211
:00000001FF
