:10000000020080E4FDFC75A0FE20B12C12006430DB
:10001000B1FD1200640DBD00010CC3ED9408EC9419
:10002000004003E4FCFDAF057401A807088002C38B
:1000300033D8FCF4F5A080D120B0CE12006430B0EB
:10004000FD120064ED4C7005FC7D078005ED1D7010
:10005000011CAF057401A807088002C333D8FCF463
:10006000F5A080A57F147E00EF4E60137508027521
:1000700009EFD509FDD508FAEF1F70EC1E80E922C3
:0C008000787FE4F6D8FD758109020003CA
:00000001FF
