:030000000209D81A
:10080000E4FD7F8E120AF0E51175F00A84C454F0FD
:10081000FFE51175F00A84EF7F8C120AEDE5127581
:10082000F00A84C454F0FFE51275F00A84EF7F8863
:10083000120AEDE51375F00A84C454F0FFE5137550
:10084000F00A84EF25F0FD7F86120AF0E51475F0BA
:100850000A84C454F0FFE51475F00A84EF25F0FD16
:100860007F84120AF0E51575F00A84C454F0FFE5A0
:100870001575F00A84EF25F0FD7F82120AF0E51667
:1008800075F00A84C454F0FFE51675F00A84EF256C
:10089000F0FD7F80120AF0E51775F00A84C454F069
:1008A000FFE51775F00A84EF25F0FD7F8A120AF044
:1008B0007D807F8E020AF0BB010CE58229F582E57E
:1008C000833AF583E0225006E92582F8E622BBFE52
:1008D00006E92582F8E222E58229F582E5833AF5E8
:1008E00083E49322EF8DF0A4A8F0CF8CF0A428CE5F
:1008F0008DF0A42EFE22BC000BBE0029EF8DF084EB
:10090000FFADF022E4CCF875F008EF2FFFEE33FED8
:10091000EC33FCEE9DEC984005FCEE9DFE0FD5F00F
:10092000E9E4CEFD22EDF8F5F0EE8420D21CFEAD18
:10093000F075F008EF2FFFED33FD4007985006D516
:10094000F0F222C398FD0FD5F0EA227F8C120B4102
:10095000EFC4540F75F00AA4FEEF540F2EF5117F6B
:1009600088120B41EFC4540F75F00AA4FEEF540F28
:100970002EF5127F86120B41EFC4540F75F00AA4B6
:10098000FEEF540F2EF5137F84120B41EFC4540F6A
:1009900075F00AA4FEEF540F2EF5147F82120B415E
:1009A000EFC4540F75F00AA4FEEF540F2EF5157F17
:1009B00080120B41EFC4540F75F00AA4FEEF540FE0
:1009C0002EF5167F8A120B41EFC4540F75F00AA45E
:1009D000FEEF540F2EF51722787FE4F6D8FD7581CF
:1009E00017020A1F020A64E493A3F8E493A34003E6
:1009F000F68001F208DFF48029E493A3F854072479
:100A00000CC8C333C4540F4420C8834004F4568038
:100A10000146F6DFE4800B010204081020408090BC
:100A20000C59E47E019360BCA3FF543F30E50954A8
:100A30001FFEE493A360010ECF54C025E060A840E0
:100A4000B8E493A3FAE493A3F8E493A3C8C582C8D7
:100A5000CAC583CAF0A3C8C582C8CAC583CADFE9AC
:100A6000DEE780BE120C36120C767BFF7A0C796DB5
:100A70007D017F01120BC27BFF7A0C796D7D017FB6
:100A800002120BC2E4FD7F8E120AF0120800120956
:100A90004BE511FB7A00750C027D017F01120C03FE
:100AA000E512FB7A00750C027D047F01120C03E550
:100AB00013FB7A00750C027D077F01120C03E5140D
:100AC000FB7A00750C027D017F02120C03E515FB19
:100AD0007A00750C027D047F02120C03E516FB7A86
:100AE00000750C027D077F02120C0380A125F0FD2A
:100AF000A907D2B5E4FB74017E00A803088005C3F2
:100B000033CE33CED8F9FFE9F582EF558224FF9238
:100B1000B4D2B6C2B60BBB08DDE4FB74017E00A8FC
:100B200003088005C333CE33CED8F9FFEDF582EF4D
:100B3000558224FF92B4D2B6C2B60BBB08DDC2B553
:100B400022AD07E4F9430501D2B5FB74017E00A88C
:100B500003088005C333CE33CED8F9FFEDF582EF1D
:100B6000558224FF92B4C2B6D2B60BBB08DDE4FBBB
:100B7000D2B6C2B630B40D7401A803088002C333E4
:100B8000D8FC42010BBB08E8C2B5C2B4AF01227F5A
:100B90000AEA24FFFDE434FFFC7E008E0D8F0E8CEC
:100BA0000F8D107F017E00E4FBEBC39510E50F6411
:100BB00080F8748098500AAC0DAD0E1208E40B80DA
:100BC000E8228B088A09890A120C20E4FDAB08AAE6
:100BD00009A90A8D827583001208B7FF6006120BFF
:100BE000F90D80E922CFCDCFCECCCE1208F67C0015
:100BF0007D0A1208F6ED2430FFD2A6120C4AC2A7D5
:100C0000020C508A0A8B0B120C20AA0CEAD3940017
:100C1000400D120B8FAC0AAD0B120BE51A80ED22C2
:100C2000AE07BE0104ED148006BE0209ED243F4468
:100C300080FF120C63227F38120C637F0C120C634E
:100C40007F06120C637F01020C63C2A58F80D2A7BE
:100C50007F027EEFDEFEDFFC2207111602040D2E5E
:100C60001E0500C2A6120C4AC2A7020C5020202D5D
:0B0C700020202D202000C2B5C2B622BB
:00000001FF
