:03000000020800F3
:10080000787FE4F6D8FD758113020847020950E4A9
:1008100093A3F8E493A34003F68001F208DFF48089
:1008200029E493A3F85407240CC8C333C4540F44D9
:1008300020C8834004F456800146F6DFE4800B01B3
:10084000020408102040809009ABE47E019360BC54
:10085000A3FF543F30E509541FFEE493A360010E4B
:10086000CF54C025E060A840B8E493A3FAE493A372
:10087000F8E493A3C8C582C8CAC583CAF0A3C8C593
:1008800082C8CAC583CADFE9DEE780BEEF14B408B8
:100890000050549008A175F003A4C58325F0C583CA
:1008A000730208B90208BD0208C10208C50208C9DE
:1008B0000208D10208D90208E1D2A4800ED2A48095
:1008C00012D2A48016D2A4801AC2A4D2A3D2A2802B
:1008D00016C2A4D2A3C2A2800EC2A4C2A3D2A28076
:1008E00006C2A4C2A3C2A274082DF8E6F58022E4D1
:1008F000F51320B1137F14FE12099630B1FD7F1459
:100900007E0012099675130120B0147F147E001228
:10091000099630B0FD7F147E0012099675130220EF
:10092000B2147F147E0012099630B2FD7F147E004F
:1009300012099675130320B3147F147E00120996D2
:1009400030B3FD7F147E00120996751304AF132295
:10095000E4FDFC7F0112088C1208EF8F12E5126093
:10096000F77F647E00120974E512FD7C007F01129E
:10097000088C80E4AD07AC06E4FBFAED25E0FFEC63
:1009800033FEC3EB9FEA9E500CB2951209B80BBB25
:1009900000010A80E622EF1FAC0670011E4C600ABF
:1009A0007D027CEFDCFEDDFC80EC220A083F065B6A
:0E09B0004F666D7D077F6F00007FF7DFFE2230
:00000001FF
